{
  "_format": "hh-sol-artifact-1",
  "contractName": "ShinChanNFT",
  "sourceName": "contracts/ShinChanNFT.sol",
  "abi": [
    {
      "inputs": [],
      "stateMutability": "nonpayable",
      "type": "constructor"
    },
    {
      "anonymous": false,
      "inputs": [
        {
          "indexed": true,
          "internalType": "address",
          "name": "owner",
          "type": "address"
        },
        {
          "indexed": true,
          "internalType": "address",
          "name": "approved",
          "type": "address"
        },
        {
          "indexed": true,
          "internalType": "uint256",
          "name": "tokenId",
          "type": "uint256"
        }
      ],
      "name": "Approval",
      "type": "event"
    },
    {
      "anonymous": false,
      "inputs": [
        {
          "indexed": true,
          "internalType": "address",
          "name": "owner",
          "type": "address"
        },
        {
          "indexed": true,
          "internalType": "address",
          "name": "operator",
          "type": "address"
        },
        {
          "indexed": false,
          "internalType": "bool",
          "name": "approved",
          "type": "bool"
        }
      ],
      "name": "ApprovalForAll",
      "type": "event"
    },
    {
      "anonymous": false,
      "inputs": [
        {
          "indexed": true,
          "internalType": "address",
          "name": "from",
          "type": "address"
        },
        {
          "indexed": true,
          "internalType": "address",
          "name": "to",
          "type": "address"
        },
        {
          "indexed": true,
          "internalType": "uint256",
          "name": "tokenId",
          "type": "uint256"
        }
      ],
      "name": "Transfer",
      "type": "event"
    },
    {
      "inputs": [
        {
          "internalType": "address",
          "name": "to",
          "type": "address"
        },
        {
          "internalType": "uint256",
          "name": "tokenId",
          "type": "uint256"
        }
      ],
      "name": "approve",
      "outputs": [],
      "stateMutability": "nonpayable",
      "type": "function"
    },
    {
      "inputs": [
        {
          "internalType": "address",
          "name": "owner",
          "type": "address"
        }
      ],
      "name": "balanceOf",
      "outputs": [
        {
          "internalType": "uint256",
          "name": "",
          "type": "uint256"
        }
      ],
      "stateMutability": "view",
      "type": "function"
    },
    {
      "inputs": [
        {
          "internalType": "uint256",
          "name": "tokenId",
          "type": "uint256"
        }
      ],
      "name": "getApproved",
      "outputs": [
        {
          "internalType": "address",
          "name": "",
          "type": "address"
        }
      ],
      "stateMutability": "view",
      "type": "function"
    },
    {
      "inputs": [
        {
          "internalType": "address",
          "name": "owner",
          "type": "address"
        },
        {
          "internalType": "address",
          "name": "operator",
          "type": "address"
        }
      ],
      "name": "isApprovedForAll",
      "outputs": [
        {
          "internalType": "bool",
          "name": "",
          "type": "bool"
        }
      ],
      "stateMutability": "view",
      "type": "function"
    },
    {
      "inputs": [],
      "name": "makeShinChanNFT",
      "outputs": [],
      "stateMutability": "nonpayable",
      "type": "function"
    },
    {
      "inputs": [],
      "name": "name",
      "outputs": [
        {
          "internalType": "string",
          "name": "",
          "type": "string"
        }
      ],
      "stateMutability": "view",
      "type": "function"
    },
    {
      "inputs": [
        {
          "internalType": "uint256",
          "name": "tokenId",
          "type": "uint256"
        }
      ],
      "name": "ownerOf",
      "outputs": [
        {
          "internalType": "address",
          "name": "",
          "type": "address"
        }
      ],
      "stateMutability": "view",
      "type": "function"
    },
    {
      "inputs": [
        {
          "internalType": "uint256",
          "name": "tokenId",
          "type": "uint256"
        }
      ],
      "name": "pickRandomFirstWord",
      "outputs": [
        {
          "internalType": "string",
          "name": "",
          "type": "string"
        }
      ],
      "stateMutability": "view",
      "type": "function"
    },
    {
      "inputs": [
        {
          "internalType": "uint256",
          "name": "tokenId",
          "type": "uint256"
        }
      ],
      "name": "pickRandomSecondWord",
      "outputs": [
        {
          "internalType": "string",
          "name": "",
          "type": "string"
        }
      ],
      "stateMutability": "view",
      "type": "function"
    },
    {
      "inputs": [
        {
          "internalType": "uint256",
          "name": "tokenId",
          "type": "uint256"
        }
      ],
      "name": "pickRandomThirdWord",
      "outputs": [
        {
          "internalType": "string",
          "name": "",
          "type": "string"
        }
      ],
      "stateMutability": "view",
      "type": "function"
    },
    {
      "inputs": [
        {
          "internalType": "address",
          "name": "from",
          "type": "address"
        },
        {
          "internalType": "address",
          "name": "to",
          "type": "address"
        },
        {
          "internalType": "uint256",
          "name": "tokenId",
          "type": "uint256"
        }
      ],
      "name": "safeTransferFrom",
      "outputs": [],
      "stateMutability": "nonpayable",
      "type": "function"
    },
    {
      "inputs": [
        {
          "internalType": "address",
          "name": "from",
          "type": "address"
        },
        {
          "internalType": "address",
          "name": "to",
          "type": "address"
        },
        {
          "internalType": "uint256",
          "name": "tokenId",
          "type": "uint256"
        },
        {
          "internalType": "bytes",
          "name": "_data",
          "type": "bytes"
        }
      ],
      "name": "safeTransferFrom",
      "outputs": [],
      "stateMutability": "nonpayable",
      "type": "function"
    },
    {
      "inputs": [
        {
          "internalType": "address",
          "name": "operator",
          "type": "address"
        },
        {
          "internalType": "bool",
          "name": "approved",
          "type": "bool"
        }
      ],
      "name": "setApprovalForAll",
      "outputs": [],
      "stateMutability": "nonpayable",
      "type": "function"
    },
    {
      "inputs": [
        {
          "internalType": "bytes4",
          "name": "interfaceId",
          "type": "bytes4"
        }
      ],
      "name": "supportsInterface",
      "outputs": [
        {
          "internalType": "bool",
          "name": "",
          "type": "bool"
        }
      ],
      "stateMutability": "view",
      "type": "function"
    },
    {
      "inputs": [],
      "name": "symbol",
      "outputs": [
        {
          "internalType": "string",
          "name": "",
          "type": "string"
        }
      ],
      "stateMutability": "view",
      "type": "function"
    },
    {
      "inputs": [
        {
          "internalType": "uint256",
          "name": "tokenId",
          "type": "uint256"
        }
      ],
      "name": "tokenURI",
      "outputs": [
        {
          "internalType": "string",
          "name": "",
          "type": "string"
        }
      ],
      "stateMutability": "view",
      "type": "function"
    },
    {
      "inputs": [
        {
          "internalType": "address",
          "name": "from",
          "type": "address"
        },
        {
          "internalType": "address",
          "name": "to",
          "type": "address"
        },
        {
          "internalType": "uint256",
          "name": "tokenId",
          "type": "uint256"
        }
      ],
      "name": "transferFrom",
      "outputs": [],
      "stateMutability": "nonpayable",
      "type": "function"
    }
  ],
  "bytecode": "0x608060405260405180610160016040528061012f81526020016200455b61012f9139600890805190602001906200003892919062000929565b506040518061014001604052806040518060400160405280600981526020017f526f79616c426c7565000000000000000000000000000000000000000000000081525081526020016040518060400160405280600881526020017f4c6176656e64657200000000000000000000000000000000000000000000000081525081526020016040518060400160405280600c81526020017f4c69676874536b79426c7565000000000000000000000000000000000000000081525081526020016040518060400160405280600e81526020017f4461726b4f6c697665477265656e00000000000000000000000000000000000081525081526020016040518060400160405280600e81526020017f436f726e666c6f776572426c756500000000000000000000000000000000000081525081526020016040518060400160405280600d81526020017f4461726b536c617465426c75650000000000000000000000000000000000000081525081526020016040518060400160405280600a81526020017f4461726b53616c6d6f6e0000000000000000000000000000000000000000000081525081526020016040518060400160405280600981526020017f4f6c69766544726162000000000000000000000000000000000000000000000081525081526020016040518060400160405280600681526020017f56696f6c6574000000000000000000000000000000000000000000000000000081525081526020016040518060400160405280600b81526020017f59656c6c6f77477265656e000000000000000000000000000000000000000000815250815250600990600a620002a3929190620009ba565b506040518061014001604052806040518060400160405280600481526020017f546172740000000000000000000000000000000000000000000000000000000081525081526020016040518060400160405280600881526020017f577265746368656400000000000000000000000000000000000000000000000081525081526020016040518060400160405280600a81526020017f4f627461696e61626c650000000000000000000000000000000000000000000081525081526020016040518060400160405280600781526020017f44617368696e670000000000000000000000000000000000000000000000000081525081526020016040518060400160405280600581526020017f4d6163686f00000000000000000000000000000000000000000000000000000081525081526020016040518060400160405280600781526020017f4479616e6d69630000000000000000000000000000000000000000000000000081525081526020016040518060400160405280600781526020017f46726167696c650000000000000000000000000000000000000000000000000081525081526020016040518060400160405280600481526020017f446561720000000000000000000000000000000000000000000000000000000081525081526020016040518060400160405280600581526020017f417761726500000000000000000000000000000000000000000000000000000081525081526020016040518060400160405280600681526020017f526f627573740000000000000000000000000000000000000000000000000000815250815250600a90600a6200050e929190620009ba565b506040518061014001604052806040518060400160405280600481526020017f576176650000000000000000000000000000000000000000000000000000000081525081526020016040518060400160405280600881526020017f436865727269657300000000000000000000000000000000000000000000000081525081526020016040518060400160405280600a81526020017f546f6f746870617374650000000000000000000000000000000000000000000081525081526020016040518060400160405280600b81526020017f446576656c6f706d656e7400000000000000000000000000000000000000000081525081526020016040518060400160405280600681526020017f506f72746572000000000000000000000000000000000000000000000000000081525081526020016040518060400160405280600581526020017f43726f6f6b00000000000000000000000000000000000000000000000000000081525081526020016040518060400160405280600481526020017f576f726d0000000000000000000000000000000000000000000000000000000081525081526020016040518060400160405280600881526020017f4275696c64696e6700000000000000000000000000000000000000000000000081525081526020016040518060400160405280600481526020017f576f6f640000000000000000000000000000000000000000000000000000000081525081526020016040518060400160405280600481526020017f5472656500000000000000000000000000000000000000000000000000000000815250815250600b90600a62000779929190620009ba565b503480156200078757600080fd5b506040518060400160405280600581526020017f53434e46540000000000000000000000000000000000000000000000000000008152506040518060400160405280600681526020017f535155415245000000000000000000000000000000000000000000000000000081525081600090805190602001906200080c92919062000929565b5080600190805190602001906200082592919062000929565b505050620008576040518060600160405280602181526020016200468a602191396200085d60201b620011f41760201c565b62000bdb565b620008fd8160405160240162000874919062000aef565b6040516020818303038152906040527f41304fac000000000000000000000000000000000000000000000000000000007bffffffffffffffffffffffffffffffffffffffffffffffffffffffff19166020820180517bffffffffffffffffffffffffffffffffffffffffffffffffffffffff83818316178352505050506200090060201b60201c565b50565b60008151905060006a636f6e736f6c652e6c6f679050602083016000808483855afa5050505050565b828054620009379062000b65565b90600052602060002090601f0160209004810192826200095b5760008555620009a7565b82601f106200097657805160ff1916838001178555620009a7565b82800160010185558215620009a7579182015b82811115620009a657825182559160200191906001019062000989565b5b509050620009b6919062000a21565b5090565b82805482825590600052602060002090810192821562000a0e579160200282015b8281111562000a0d578251829080519060200190620009fc92919062000929565b5091602001919060010190620009db565b5b50905062000a1d919062000a40565b5090565b5b8082111562000a3c57600081600090555060010162000a22565b5090565b5b8082111562000a64576000818162000a5a919062000a68565b5060010162000a41565b5090565b50805462000a769062000b65565b6000825580601f1062000a8a575062000aab565b601f01602090049060005260206000209081019062000aaa919062000a21565b5b50565b600062000abb8262000b13565b62000ac7818562000b1e565b935062000ad981856020860162000b2f565b62000ae48162000bca565b840191505092915050565b6000602082019050818103600083015262000b0b818462000aae565b905092915050565b600081519050919050565b600082825260208201905092915050565b60005b8381101562000b4f57808201518184015260208101905062000b32565b8381111562000b5f576000848401525b50505050565b6000600282049050600182168062000b7e57607f821691505b6020821081141562000b955762000b9462000b9b565b5b50919050565b7f4e487b7100000000000000000000000000000000000000000000000000000000600052602260045260246000fd5b6000601f19601f8301169050919050565b6139708062000beb6000396000f3fe608060405234801561001057600080fd5b506004361061010b5760003560e01c80636352211e116100a2578063b187301f11610071578063b187301f146102b6578063b88d4fde146102e6578063c575757a14610302578063c87b56dd14610332578063e985e9c5146103625761010b565b80636352211e1461021c57806370a082311461024c57806395d89b411461027c578063a22cb4651461029a5761010b565b806323b872dd116100de57806323b872dd146101aa5780632de38d68146101c657806342842e0e146101f657806347c23d45146102125761010b565b806301ffc9a71461011057806306fdde0314610140578063081812fc1461015e578063095ea7b31461018e575b600080fd5b61012a60048036038101906101259190612487565b610392565b6040516101379190612b82565b60405180910390f35b610148610474565b6040516101559190612b9d565b60405180910390f35b610178600480360381019061017391906124d9565b610506565b6040516101859190612b1b565b60405180910390f35b6101a860048036038101906101a3919061244b565b61058b565b005b6101c460048036038101906101bf9190612345565b6106a3565b005b6101e060048036038101906101db91906124d9565b610703565b6040516101ed9190612b9d565b60405180910390f35b610210600480360381019061020b9190612345565b610821565b005b61021a610841565b005b610236600480360381019061023191906124d9565b6109f3565b6040516102439190612b1b565b60405180910390f35b610266600480360381019061026191906122e0565b610aa5565b6040516102739190612e04565b60405180910390f35b610284610b5d565b6040516102919190612b9d565b60405180910390f35b6102b460048036038101906102af919061240f565b610bef565b005b6102d060048036038101906102cb91906124d9565b610d70565b6040516102dd9190612b9d565b60405180910390f35b61030060048036038101906102fb9190612394565b610e8e565b005b61031c600480360381019061031791906124d9565b610ef0565b6040516103299190612b9d565b60405180910390f35b61034c600480360381019061034791906124d9565b61100e565b6040516103599190612b9d565b60405180910390f35b61037c60048036038101906103779190612309565b611160565b6040516103899190612b82565b60405180910390f35b60007f80ac58cd000000000000000000000000000000000000000000000000000000007bffffffffffffffffffffffffffffffffffffffffffffffffffffffff1916827bffffffffffffffffffffffffffffffffffffffffffffffffffffffff1916148061045d57507f5b5e139f000000000000000000000000000000000000000000000000000000007bffffffffffffffffffffffffffffffffffffffffffffffffffffffff1916827bffffffffffffffffffffffffffffffffffffffffffffffffffffffff1916145b8061046d575061046c8261128d565b5b9050919050565b60606000805461048390613098565b80601f01602080910402602001604051908101604052809291908181526020018280546104af90613098565b80156104fc5780601f106104d1576101008083540402835291602001916104fc565b820191906000526020600020905b8154815290600101906020018083116104df57829003601f168201915b5050505050905090565b6000610511826112f7565b610550576040517f08c379a000000000000000000000000000000000000000000000000000000000815260040161054790612d64565b60405180910390fd5b6004600083815260200190815260200160002060009054906101000a900473ffffffffffffffffffffffffffffffffffffffff169050919050565b6000610596826109f3565b90508073ffffffffffffffffffffffffffffffffffffffff168373ffffffffffffffffffffffffffffffffffffffff161415610607576040517f08c379a00000000000000000000000000000000000000000000000000000000081526004016105fe90612dc4565b60405180910390fd5b8073ffffffffffffffffffffffffffffffffffffffff16610626611363565b73ffffffffffffffffffffffffffffffffffffffff16148061065557506106548161064f611363565b611160565b5b610694576040517f08c379a000000000000000000000000000000000000000000000000000000000815260040161068b90612ca4565b60405180910390fd5b61069e838361136b565b505050565b6106b46106ae611363565b82611424565b6106f3576040517f08c379a00000000000000000000000000000000000000000000000000000000081526004016106ea90612de4565b60405180910390fd5b6106fe838383611502565b505050565b606060006107376107138461175e565b6040516020016107239190612ad7565b60405160208183030381529060405261190b565b90506009805490508161074a9190613144565b905060098181548110610786577f4e487b7100000000000000000000000000000000000000000000000000000000600052603260045260246000fd5b90600052602060002001805461079b90613098565b80601f01602080910402602001604051908101604052809291908181526020018280546107c790613098565b80156108145780601f106107e957610100808354040283529160200191610814565b820191906000526020600020905b8154815290600101906020018083116107f757829003601f168201915b5050505050915050919050565b61083c83838360405180602001604052806000815250610e8e565b505050565b600061084d600761193e565b9050600061085a82610703565b9050600061086783610d70565b9050600061087484610ef0565b9050600083838360405160200161088d939291906129d4565b6040516020818303038152906040529050600060088585856040516020016108b89493929190612a05565b604051602081830303815290604052905060006108fd836108d88461194c565b6040516020016108e9929190612a92565b60405160208183030381529060405261194c565b90506000816040516020016109129190612af9565b60405160208183030381529060405290506109616040518060400160405280601581526020017f0a2d2d2d2d2d2d2d2d2d2d2d2d2d2d2d2d2d2d2d2d00000000000000000000008152506111f4565b61096a836111f4565b6109a86040518060400160405280601581526020017f2d2d2d2d2d2d2d2d2d2d2d2d2d2d2d2d2d2d2d2d0a00000000000000000000008152506111f4565b6109b23389611b0a565b6109bc8882611b28565b6109df6040518060600160405280602481526020016138d7602491398233611b9c565b6109e96007611c3b565b5050505050505050565b6000806002600084815260200190815260200160002060009054906101000a900473ffffffffffffffffffffffffffffffffffffffff169050600073ffffffffffffffffffffffffffffffffffffffff168173ffffffffffffffffffffffffffffffffffffffff161415610a9c576040517f08c379a0000000000000000000000000000000000000000000000000000000008152600401610a9390612ce4565b60405180910390fd5b80915050919050565b60008073ffffffffffffffffffffffffffffffffffffffff168273ffffffffffffffffffffffffffffffffffffffff161415610b16576040517f08c379a0000000000000000000000000000000000000000000000000000000008152600401610b0d90612cc4565b60405180910390fd5b600360008373ffffffffffffffffffffffffffffffffffffffff1673ffffffffffffffffffffffffffffffffffffffff168152602001908152602001600020549050919050565b606060018054610b6c90613098565b80601f0160208091040260200160405190810160405280929190818152602001828054610b9890613098565b8015610be55780601f10610bba57610100808354040283529160200191610be5565b820191906000526020600020905b815481529060010190602001808311610bc857829003601f168201915b5050505050905090565b610bf7611363565b73ffffffffffffffffffffffffffffffffffffffff168273ffffffffffffffffffffffffffffffffffffffff161415610c65576040517f08c379a0000000000000000000000000000000000000000000000000000000008152600401610c5c90612c64565b60405180910390fd5b8060056000610c72611363565b73ffffffffffffffffffffffffffffffffffffffff1673ffffffffffffffffffffffffffffffffffffffff16815260200190815260200160002060008473ffffffffffffffffffffffffffffffffffffffff1673ffffffffffffffffffffffffffffffffffffffff16815260200190815260200160002060006101000a81548160ff0219169083151502179055508173ffffffffffffffffffffffffffffffffffffffff16610d1f611363565b73ffffffffffffffffffffffffffffffffffffffff167f17307eab39ab6107e8899845ad3d59bd9653f200f220920489ca2b5937696c3183604051610d649190612b82565b60405180910390a35050565b60606000610da4610d808461175e565b604051602001610d909190612a70565b60405160208183030381529060405261190b565b9050600a8054905081610db79190613144565b9050600a8181548110610df3577f4e487b7100000000000000000000000000000000000000000000000000000000600052603260045260246000fd5b906000526020600020018054610e0890613098565b80601f0160208091040260200160405190810160405280929190818152602001828054610e3490613098565b8015610e815780601f10610e5657610100808354040283529160200191610e81565b820191906000526020600020905b815481529060010190602001808311610e6457829003601f168201915b5050505050915050919050565b610e9f610e99611363565b83611424565b610ede576040517f08c379a0000000000000000000000000000000000000000000000000000000008152600401610ed590612de4565b60405180910390fd5b610eea84848484611c51565b50505050565b60606000610f24610f008461175e565b604051602001610f109190612a4e565b60405160208183030381529060405261190b565b9050600b8054905081610f379190613144565b9050600b8181548110610f73577f4e487b7100000000000000000000000000000000000000000000000000000000600052603260045260246000fd5b906000526020600020018054610f8890613098565b80601f0160208091040260200160405190810160405280929190818152602001828054610fb490613098565b80156110015780601f10610fd657610100808354040283529160200191611001565b820191906000526020600020905b815481529060010190602001808311610fe457829003601f168201915b5050505050915050919050565b6060611019826112f7565b611058576040517f08c379a000000000000000000000000000000000000000000000000000000000815260040161104f90612d44565b60405180910390fd5b600060066000848152602001908152602001600020805461107890613098565b80601f01602080910402602001604051908101604052809291908181526020018280546110a490613098565b80156110f15780601f106110c6576101008083540402835291602001916110f1565b820191906000526020600020905b8154815290600101906020018083116110d457829003601f168201915b505050505090506000611102611cad565b905060008151141561111857819250505061115b565b60008251111561114d5780826040516020016111359291906129b0565b6040516020818303038152906040529250505061115b565b61115684611cc4565b925050505b919050565b6000600560008473ffffffffffffffffffffffffffffffffffffffff1673ffffffffffffffffffffffffffffffffffffffff16815260200190815260200160002060008373ffffffffffffffffffffffffffffffffffffffff1673ffffffffffffffffffffffffffffffffffffffff16815260200190815260200160002060009054906101000a900460ff16905092915050565b61128a816040516024016112089190612b9d565b6040516020818303038152906040527f41304fac000000000000000000000000000000000000000000000000000000007bffffffffffffffffffffffffffffffffffffffffffffffffffffffff19166020820180517bffffffffffffffffffffffffffffffffffffffffffffffffffffffff8381831617835250505050611d6b565b50565b60007f01ffc9a7000000000000000000000000000000000000000000000000000000007bffffffffffffffffffffffffffffffffffffffffffffffffffffffff1916827bffffffffffffffffffffffffffffffffffffffffffffffffffffffff1916149050919050565b60008073ffffffffffffffffffffffffffffffffffffffff166002600084815260200190815260200160002060009054906101000a900473ffffffffffffffffffffffffffffffffffffffff1673ffffffffffffffffffffffffffffffffffffffff1614159050919050565b600033905090565b816004600083815260200190815260200160002060006101000a81548173ffffffffffffffffffffffffffffffffffffffff021916908373ffffffffffffffffffffffffffffffffffffffff160217905550808273ffffffffffffffffffffffffffffffffffffffff166113de836109f3565b73ffffffffffffffffffffffffffffffffffffffff167f8c5be1e5ebec7d5bd14f71427d1e84f3dd0314c0f7b2291e5b200ac8c7c3b92560405160405180910390a45050565b600061142f826112f7565b61146e576040517f08c379a000000000000000000000000000000000000000000000000000000000815260040161146590612c84565b60405180910390fd5b6000611479836109f3565b90508073ffffffffffffffffffffffffffffffffffffffff168473ffffffffffffffffffffffffffffffffffffffff1614806114e857508373ffffffffffffffffffffffffffffffffffffffff166114d084610506565b73ffffffffffffffffffffffffffffffffffffffff16145b806114f957506114f88185611160565b5b91505092915050565b8273ffffffffffffffffffffffffffffffffffffffff16611522826109f3565b73ffffffffffffffffffffffffffffffffffffffff1614611578576040517f08c379a000000000000000000000000000000000000000000000000000000000815260040161156f90612d84565b60405180910390fd5b600073ffffffffffffffffffffffffffffffffffffffff168273ffffffffffffffffffffffffffffffffffffffff1614156115e8576040517f08c379a00000000000000000000000000000000000000000000000000000000081526004016115df90612c44565b60405180910390fd5b6115f3838383611d94565b6115fe60008261136b565b6001600360008573ffffffffffffffffffffffffffffffffffffffff1673ffffffffffffffffffffffffffffffffffffffff168152602001908152602001600020600082825461164e9190612fae565b925050819055506001600360008473ffffffffffffffffffffffffffffffffffffffff1673ffffffffffffffffffffffffffffffffffffffff16815260200190815260200160002060008282546116a59190612ecd565b92505081905550816002600083815260200190815260200160002060006101000a81548173ffffffffffffffffffffffffffffffffffffffff021916908373ffffffffffffffffffffffffffffffffffffffff160217905550808273ffffffffffffffffffffffffffffffffffffffff168473ffffffffffffffffffffffffffffffffffffffff167fddf252ad1be2c89b69c2b068fc378daa952ba7f163c4a11628f55a4df523b3ef60405160405180910390a4505050565b606060008214156117a6576040518060400160405280600181526020017f30000000000000000000000000000000000000000000000000000000000000008152509050611906565b600082905060005b600082146117d85780806117c1906130fb565b915050600a826117d19190612f23565b91506117ae565b60008167ffffffffffffffff81111561181a577f4e487b7100000000000000000000000000000000000000000000000000000000600052604160045260246000fd5b6040519080825280601f01601f19166020018201604052801561184c5781602001600182028036833780820191505090505b5090505b600085146118ff576001826118659190612fae565b9150600a856118749190613144565b60306118809190612ecd565b60f81b8183815181106118bc577f4e487b7100000000000000000000000000000000000000000000000000000000600052603260045260246000fd5b60200101907effffffffffffffffffffffffffffffffffffffffffffffffffffffffffffff1916908160001a905350600a856118f89190612f23565b9450611850565b8093505050505b919050565b60008160405160200161191e9190612999565b6040516020818303038152906040528051906020012060001c9050919050565b600081600001549050919050565b606060008251905060008114156119755760405180602001604052806000815250915050611b05565b600060036002836119869190612ecd565b6119909190612f23565b600461199c9190612f54565b905060006020826119ad9190612ecd565b67ffffffffffffffff8111156119ec577f4e487b7100000000000000000000000000000000000000000000000000000000600052604160045260246000fd5b6040519080825280601f01601f191660200182016040528015611a1e5781602001600182028036833780820191505090505b50905060006040518060600160405280604081526020016138fb604091399050600181016020830160005b86811015611ac25760038101905062ffffff818a015116603f8160121c168401518060081b905060ff603f83600c1c1686015116810190508060081b905060ff603f8360061c1686015116810190508060081b905060ff603f831686015116810190508060e01b90508084526004840193505050611a49565b506003860660018114611adc5760028114611aec57611af7565b613d3d60f01b6002830352611af7565b603d60f81b60018303525b508484525050819450505050505b919050565b611b24828260405180602001604052806000815250611d99565b5050565b611b31826112f7565b611b70576040517f08c379a0000000000000000000000000000000000000000000000000000000008152600401611b6790612d04565b60405180910390fd5b80600660008481526020019081526020016000209080519060200190611b9792919061216c565b505050565b611c36838383604051602401611bb493929190612bbf565b6040516020818303038152906040527f95ed0195000000000000000000000000000000000000000000000000000000007bffffffffffffffffffffffffffffffffffffffffffffffffffffffff19166020820180517bffffffffffffffffffffffffffffffffffffffffffffffffffffffff8381831617835250505050611d6b565b505050565b6001816000016000828254019250508190555050565b611c5c848484611502565b611c6884848484611df4565b611ca7576040517f08c379a0000000000000000000000000000000000000000000000000000000008152600401611c9e90612c04565b60405180910390fd5b50505050565b606060405180602001604052806000815250905090565b6060611ccf826112f7565b611d0e576040517f08c379a0000000000000000000000000000000000000000000000000000000008152600401611d0590612da4565b60405180910390fd5b6000611d18611cad565b90506000815111611d385760405180602001604052806000815250611d63565b80611d428461175e565b604051602001611d539291906129b0565b6040516020818303038152906040525b915050919050565b60008151905060006a636f6e736f6c652e6c6f679050602083016000808483855afa5050505050565b505050565b611da38383611f8b565b611db06000848484611df4565b611def576040517f08c379a0000000000000000000000000000000000000000000000000000000008152600401611de690612c04565b60405180910390fd5b505050565b6000611e158473ffffffffffffffffffffffffffffffffffffffff16612159565b15611f7e578373ffffffffffffffffffffffffffffffffffffffff1663150b7a02611e3e611363565b8786866040518563ffffffff1660e01b8152600401611e609493929190612b36565b602060405180830381600087803b158015611e7a57600080fd5b505af1925050508015611eab57506040513d601f19601f82011682018060405250810190611ea891906124b0565b60015b611f2e573d8060008114611edb576040519150601f19603f3d011682016040523d82523d6000602084013e611ee0565b606091505b50600081511415611f26576040517f08c379a0000000000000000000000000000000000000000000000000000000008152600401611f1d90612c04565b60405180910390fd5b805181602001fd5b63150b7a0260e01b7bffffffffffffffffffffffffffffffffffffffffffffffffffffffff1916817bffffffffffffffffffffffffffffffffffffffffffffffffffffffff191614915050611f83565b600190505b949350505050565b600073ffffffffffffffffffffffffffffffffffffffff168273ffffffffffffffffffffffffffffffffffffffff161415611ffb576040517f08c379a0000000000000000000000000000000000000000000000000000000008152600401611ff290612d24565b60405180910390fd5b612004816112f7565b15612044576040517f08c379a000000000000000000000000000000000000000000000000000000000815260040161203b90612c24565b60405180910390fd5b61205060008383611d94565b6001600360008473ffffffffffffffffffffffffffffffffffffffff1673ffffffffffffffffffffffffffffffffffffffff16815260200190815260200160002060008282546120a09190612ecd565b92505081905550816002600083815260200190815260200160002060006101000a81548173ffffffffffffffffffffffffffffffffffffffff021916908373ffffffffffffffffffffffffffffffffffffffff160217905550808273ffffffffffffffffffffffffffffffffffffffff16600073ffffffffffffffffffffffffffffffffffffffff167fddf252ad1be2c89b69c2b068fc378daa952ba7f163c4a11628f55a4df523b3ef60405160405180910390a45050565b600080823b905060008111915050919050565b82805461217890613098565b90600052602060002090601f01602090048101928261219a57600085556121e1565b82601f106121b357805160ff19168380011785556121e1565b828001600101855582156121e1579182015b828111156121e05782518255916020019190600101906121c5565b5b5090506121ee91906121f2565b5090565b5b8082111561220b5760008160009055506001016121f3565b5090565b600061222261221d84612e44565b612e1f565b90508281526020810184848401111561223a57600080fd5b612245848285613056565b509392505050565b60008135905061225c8161387a565b92915050565b60008135905061227181613891565b92915050565b600081359050612286816138a8565b92915050565b60008151905061229b816138a8565b92915050565b600082601f8301126122b257600080fd5b81356122c284826020860161220f565b91505092915050565b6000813590506122da816138bf565b92915050565b6000602082840312156122f257600080fd5b60006123008482850161224d565b91505092915050565b6000806040838503121561231c57600080fd5b600061232a8582860161224d565b925050602061233b8582860161224d565b9150509250929050565b60008060006060848603121561235a57600080fd5b60006123688682870161224d565b93505060206123798682870161224d565b925050604061238a868287016122cb565b9150509250925092565b600080600080608085870312156123aa57600080fd5b60006123b88782880161224d565b94505060206123c98782880161224d565b93505060406123da878288016122cb565b925050606085013567ffffffffffffffff8111156123f757600080fd5b612403878288016122a1565b91505092959194509250565b6000806040838503121561242257600080fd5b60006124308582860161224d565b925050602061244185828601612262565b9150509250929050565b6000806040838503121561245e57600080fd5b600061246c8582860161224d565b925050602061247d858286016122cb565b9150509250929050565b60006020828403121561249957600080fd5b60006124a784828501612277565b91505092915050565b6000602082840312156124c257600080fd5b60006124d08482850161228c565b91505092915050565b6000602082840312156124eb57600080fd5b60006124f9848285016122cb565b91505092915050565b61250b81612fe2565b82525050565b61251a81612ff4565b82525050565b600061252b82612e8a565b6125358185612ea0565b9350612545818560208601613065565b61254e81613231565b840191505092915050565b600061256482612e95565b61256e8185612eb1565b935061257e818560208601613065565b61258781613231565b840191505092915050565b600061259d82612e95565b6125a78185612ec2565b93506125b7818560208601613065565b80840191505092915050565b600081546125d081613098565b6125da8186612ec2565b945060018216600081146125f5576001811461260657612639565b60ff19831686528186019350612639565b61260f85612e75565b60005b8381101561263157815481890152600182019150602081019050612612565b838801955050505b50505092915050565b600061264f603283612eb1565b915061265a82613242565b604082019050919050565b6000612672601c83612eb1565b915061267d82613291565b602082019050919050565b6000612695600a83612ec2565b91506126a0826132ba565b600a82019050919050565b60006126b8602483612eb1565b91506126c3826132e3565b604082019050919050565b60006126db601983612eb1565b91506126e682613332565b602082019050919050565b60006126fe606383612ec2565b91506127098261335b565b606382019050919050565b6000612721600b83612ec2565b915061272c826133f6565b600b82019050919050565b6000612744602c83612eb1565b915061274f8261341f565b604082019050919050565b6000612767600d83612ec2565b91506127728261346e565b600d82019050919050565b600061278a603883612eb1565b915061279582613497565b604082019050919050565b60006127ad602a83612eb1565b91506127b8826134e6565b604082019050919050565b60006127d0602983612eb1565b91506127db82613535565b604082019050919050565b60006127f3602e83612eb1565b91506127fe82613584565b604082019050919050565b6000612816600283612ec2565b9150612821826135d3565b600282019050919050565b6000612839602083612eb1565b9150612844826135fc565b602082019050919050565b600061285c603183612eb1565b915061286782613625565b604082019050919050565b600061287f602c83612eb1565b915061288a82613674565b604082019050919050565b60006128a2602983612eb1565b91506128ad826136c3565b604082019050919050565b60006128c5602f83612eb1565b91506128d082613712565b604082019050919050565b60006128e8600a83612ec2565b91506128f382613761565b600a82019050919050565b600061290b602183612eb1565b91506129168261378a565b604082019050919050565b600061292e600a83612ec2565b9150612939826137d9565b600a82019050919050565b6000612951601d83612ec2565b915061295c82613802565b601d82019050919050565b6000612974603183612eb1565b915061297f8261382b565b604082019050919050565b6129938161304c565b82525050565b60006129a58284612592565b915081905092915050565b60006129bc8285612592565b91506129c88284612592565b91508190509392505050565b60006129e08286612592565b91506129ec8285612592565b91506129f88284612592565b9150819050949350505050565b6000612a1182876125c3565b9150612a1d8286612592565b9150612a298285612592565b9150612a358284612592565b9150612a408261275a565b915081905095945050505050565b6000612a5982612688565b9150612a658284612592565b915081905092915050565b6000612a7b82612714565b9150612a878284612592565b915081905092915050565b6000612a9d826128db565b9150612aa98285612592565b9150612ab4826126f1565b9150612ac08284612592565b9150612acb82612809565b91508190509392505050565b6000612ae282612921565b9150612aee8284612592565b915081905092915050565b6000612b0482612944565b9150612b108284612592565b915081905092915050565b6000602082019050612b306000830184612502565b92915050565b6000608082019050612b4b6000830187612502565b612b586020830186612502565b612b65604083018561298a565b8181036060830152612b778184612520565b905095945050505050565b6000602082019050612b976000830184612511565b92915050565b60006020820190508181036000830152612bb78184612559565b905092915050565b60006060820190508181036000830152612bd98186612559565b90508181036020830152612bed8185612559565b9050612bfc6040830184612502565b949350505050565b60006020820190508181036000830152612c1d81612642565b9050919050565b60006020820190508181036000830152612c3d81612665565b9050919050565b60006020820190508181036000830152612c5d816126ab565b9050919050565b60006020820190508181036000830152612c7d816126ce565b9050919050565b60006020820190508181036000830152612c9d81612737565b9050919050565b60006020820190508181036000830152612cbd8161277d565b9050919050565b60006020820190508181036000830152612cdd816127a0565b9050919050565b60006020820190508181036000830152612cfd816127c3565b9050919050565b60006020820190508181036000830152612d1d816127e6565b9050919050565b60006020820190508181036000830152612d3d8161282c565b9050919050565b60006020820190508181036000830152612d5d8161284f565b9050919050565b60006020820190508181036000830152612d7d81612872565b9050919050565b60006020820190508181036000830152612d9d81612895565b9050919050565b60006020820190508181036000830152612dbd816128b8565b9050919050565b60006020820190508181036000830152612ddd816128fe565b9050919050565b60006020820190508181036000830152612dfd81612967565b9050919050565b6000602082019050612e19600083018461298a565b92915050565b6000612e29612e3a565b9050612e3582826130ca565b919050565b6000604051905090565b600067ffffffffffffffff821115612e5f57612e5e613202565b5b612e6882613231565b9050602081019050919050565b60008190508160005260206000209050919050565b600081519050919050565b600081519050919050565b600082825260208201905092915050565b600082825260208201905092915050565b600081905092915050565b6000612ed88261304c565b9150612ee38361304c565b9250827fffffffffffffffffffffffffffffffffffffffffffffffffffffffffffffffff03821115612f1857612f17613175565b5b828201905092915050565b6000612f2e8261304c565b9150612f398361304c565b925082612f4957612f486131a4565b5b828204905092915050565b6000612f5f8261304c565b9150612f6a8361304c565b9250817fffffffffffffffffffffffffffffffffffffffffffffffffffffffffffffffff0483118215151615612fa357612fa2613175565b5b828202905092915050565b6000612fb98261304c565b9150612fc48361304c565b925082821015612fd757612fd6613175565b5b828203905092915050565b6000612fed8261302c565b9050919050565b60008115159050919050565b60007fffffffff0000000000000000000000000000000000000000000000000000000082169050919050565b600073ffffffffffffffffffffffffffffffffffffffff82169050919050565b6000819050919050565b82818337600083830152505050565b60005b83811015613083578082015181840152602081019050613068565b83811115613092576000848401525b50505050565b600060028204905060018216806130b057607f821691505b602082108114156130c4576130c36131d3565b5b50919050565b6130d382613231565b810181811067ffffffffffffffff821117156130f2576130f1613202565b5b80604052505050565b60006131068261304c565b91507fffffffffffffffffffffffffffffffffffffffffffffffffffffffffffffffff82141561313957613138613175565b5b600182019050919050565b600061314f8261304c565b915061315a8361304c565b92508261316a576131696131a4565b5b828206905092915050565b7f4e487b7100000000000000000000000000000000000000000000000000000000600052601160045260246000fd5b7f4e487b7100000000000000000000000000000000000000000000000000000000600052601260045260246000fd5b7f4e487b7100000000000000000000000000000000000000000000000000000000600052602260045260246000fd5b7f4e487b7100000000000000000000000000000000000000000000000000000000600052604160045260246000fd5b6000601f19601f8301169050919050565b7f4552433732313a207472616e7366657220746f206e6f6e20455243373231526560008201527f63656976657220696d706c656d656e7465720000000000000000000000000000602082015250565b7f4552433732313a20746f6b656e20616c7265616479206d696e74656400000000600082015250565b7f54484952445f574f524400000000000000000000000000000000000000000000600082015250565b7f4552433732313a207472616e7366657220746f20746865207a65726f2061646460008201527f7265737300000000000000000000000000000000000000000000000000000000602082015250565b7f4552433732313a20617070726f766520746f2063616c6c657200000000000000600082015250565b7f222c20226465736372697074696f6e223a20224120686967686c79206163636c60008201527f61696d656420636f6c6c656374696f6e206f6620737175617265732e222c202260208201527f696d616765223a2022646174613a696d6167652f7376672b786d6c3b6261736560408201527f36342c0000000000000000000000000000000000000000000000000000000000606082015250565b7f5345434f4e445f574f5244000000000000000000000000000000000000000000600082015250565b7f4552433732313a206f70657261746f7220717565727920666f72206e6f6e657860008201527f697374656e7420746f6b656e0000000000000000000000000000000000000000602082015250565b7f3c2f746578743e3c2f7376673e00000000000000000000000000000000000000600082015250565b7f4552433732313a20617070726f76652063616c6c6572206973206e6f74206f7760008201527f6e6572206e6f7220617070726f76656420666f7220616c6c0000000000000000602082015250565b7f4552433732313a2062616c616e636520717565727920666f7220746865207a6560008201527f726f206164647265737300000000000000000000000000000000000000000000602082015250565b7f4552433732313a206f776e657220717565727920666f72206e6f6e657869737460008201527f656e7420746f6b656e0000000000000000000000000000000000000000000000602082015250565b7f45524337323155524953746f726167653a2055524920736574206f66206e6f6e60008201527f6578697374656e7420746f6b656e000000000000000000000000000000000000602082015250565b7f227d000000000000000000000000000000000000000000000000000000000000600082015250565b7f4552433732313a206d696e7420746f20746865207a65726f2061646472657373600082015250565b7f45524337323155524953746f726167653a2055524920717565727920666f722060008201527f6e6f6e6578697374656e7420746f6b656e000000000000000000000000000000602082015250565b7f4552433732313a20617070726f76656420717565727920666f72206e6f6e657860008201527f697374656e7420746f6b656e0000000000000000000000000000000000000000602082015250565b7f4552433732313a207472616e73666572206f6620746f6b656e2074686174206960008201527f73206e6f74206f776e0000000000000000000000000000000000000000000000602082015250565b7f4552433732314d657461646174613a2055524920717565727920666f72206e6f60008201527f6e6578697374656e7420746f6b656e0000000000000000000000000000000000602082015250565b7f7b226e616d65223a202200000000000000000000000000000000000000000000600082015250565b7f4552433732313a20617070726f76616c20746f2063757272656e74206f776e6560008201527f7200000000000000000000000000000000000000000000000000000000000000602082015250565b7f46495253545f574f524400000000000000000000000000000000000000000000600082015250565b7f646174613a6170706c69636174696f6e2f6a736f6e3b6261736536342c000000600082015250565b7f4552433732313a207472616e736665722063616c6c6572206973206e6f74206f60008201527f776e6572206e6f7220617070726f766564000000000000000000000000000000602082015250565b61388381612fe2565b811461388e57600080fd5b50565b61389a81612ff4565b81146138a557600080fd5b50565b6138b181613000565b81146138bc57600080fd5b50565b6138c88161304c565b81146138d357600080fd5b5056fe41204e465420772f20494420257320686173206265656e206d696e74656420746f2025734142434445464748494a4b4c4d4e4f505152535455565758595a6162636465666768696a6b6c6d6e6f707172737475767778797a303132333435363738392b2fa2646970667358221220617af644213b487c23bf3156bb8d12db03517e1fde097c3aba9174f52221f57d64736f6c634300080400333c73766720786d6c6e733d27687474703a2f2f7777772e77332e6f72672f323030302f73766727207072657365727665417370656374526174696f3d27784d696e594d696e206d656574272076696577426f783d273020302033353020333530273e3c7374796c653e2e62617365207b2066696c6c3a2077686974653b20666f6e742d66616d696c793a2073657269663b20666f6e742d73697a653a20323470783b207d3c2f7374796c653e3c726563742077696474683d273130302527206865696768743d2731303025272066696c6c3d27626c61636b27202f3e3c7465787420783d273530252720793d273530252720636c6173733d27626173652720646f6d696e616e742d626173656c696e653d276d6964646c652720746578742d616e63686f723d276d6964646c65273e54686973206973206d79205368696e204368616e204e465420636f6e7472616374",
  "linkReferences": {},
  "deployedLinkReferences": {}
}